{
  "contractName": "landTitle",
  "abi": [
    {
      "inputs": [],
      "payable": false,
      "stateMutability": "nonpayable",
      "type": "constructor"
    },
    {
      "constant": true,
      "inputs": [],
      "name": "owner",
      "outputs": [
        {
          "internalType": "address",
          "name": "",
          "type": "address"
        }
      ],
      "payable": false,
      "stateMutability": "view",
      "type": "function"
    },
    {
      "constant": true,
      "inputs": [
        {
          "internalType": "uint256",
          "name": "_id",
          "type": "uint256"
        }
      ],
      "name": "getDetails",
      "outputs": [
        {
          "internalType": "string",
          "name": "name",
          "type": "string"
        },
        {
          "internalType": "string",
          "name": "land",
          "type": "string"
        },
        {
          "internalType": "string",
          "name": "district",
          "type": "string"
        },
        {
          "internalType": "string",
          "name": "municipality",
          "type": "string"
        },
        {
          "internalType": "uint256",
          "name": "ward",
          "type": "uint256"
        },
        {
          "internalType": "uint256",
          "name": "plot",
          "type": "uint256"
        }
      ],
      "payable": false,
      "stateMutability": "view",
      "type": "function"
    },
    {
      "constant": false,
      "inputs": [
        {
          "internalType": "uint256",
          "name": "id",
          "type": "uint256"
        },
        {
          "internalType": "string",
          "name": "owner_name",
          "type": "string"
        },
        {
          "internalType": "string",
          "name": "land_type",
          "type": "string"
        },
        {
          "internalType": "string",
          "name": "district",
          "type": "string"
        },
        {
          "internalType": "string",
          "name": "municipality",
          "type": "string"
        },
        {
          "internalType": "uint256",
          "name": "ward_no",
          "type": "uint256"
        },
        {
          "internalType": "uint256",
          "name": "plot_no",
          "type": "uint256"
        }
      ],
      "name": "registerLand",
      "outputs": [
        {
          "internalType": "bool",
          "name": "",
          "type": "bool"
        }
      ],
      "payable": false,
      "stateMutability": "nonpayable",
      "type": "function"
    },
    {
      "constant": false,
      "inputs": [
        {
          "internalType": "uint256",
          "name": "id",
          "type": "uint256"
        },
        {
          "internalType": "string",
          "name": "owner_new",
          "type": "string"
        },
        {
          "internalType": "string",
          "name": "citizen_ship",
          "type": "string"
        }
      ],
      "name": "changeOwnership",
      "outputs": [
        {
          "internalType": "bool",
          "name": "",
          "type": "bool"
        }
      ],
      "payable": false,
      "stateMutability": "nonpayable",
      "type": "function"
    }
  ],
  "bytecode": "0x608060405234801561001057600080fd5b5033600260006101000a81548173ffffffffffffffffffffffffffffffffffffffff021916908373ffffffffffffffffffffffffffffffffffffffff1602179055506000600381905550610d3a806100696000396000f3fe608060405234801561001057600080fd5b506004361061004c5760003560e01c8063469746c4146100515780638da5cb5b146101c5578063adc1507d1461020f578063b93a89f7146104c5575b600080fd5b6101ab6004803603606081101561006757600080fd5b81019080803590602001909291908035906020019064010000000081111561008e57600080fd5b8201836020820111156100a057600080fd5b803590602001918460018302840111640100000000831117156100c257600080fd5b91908080601f016020809104026020016040519081016040528093929190818152602001838380828437600081840152601f19601f8201169050808301925050505050505091929192908035906020019064010000000081111561012557600080fd5b82018360208201111561013757600080fd5b8035906020019184600183028401116401000000008311171561015957600080fd5b91908080601f016020809104026020016040519081016040528093929190818152602001838380828437600081840152601f19601f8201169050808301925050505050505091929192905050506106be565b604051808215151515815260200191505060405180910390f35b6101cd610779565b604051808273ffffffffffffffffffffffffffffffffffffffff1673ffffffffffffffffffffffffffffffffffffffff16815260200191505060405180910390f35b6104ab600480360360e081101561022557600080fd5b81019080803590602001909291908035906020019064010000000081111561024c57600080fd5b82018360208201111561025e57600080fd5b8035906020019184600183028401116401000000008311171561028057600080fd5b91908080601f016020809104026020016040519081016040528093929190818152602001838380828437600081840152601f19601f820116905080830192505050505050509192919290803590602001906401000000008111156102e357600080fd5b8201836020820111156102f557600080fd5b8035906020019184600183028401116401000000008311171561031757600080fd5b91908080601f016020809104026020016040519081016040528093929190818152602001838380828437600081840152601f19601f8201169050808301925050505050505091929192908035906020019064010000000081111561037a57600080fd5b82018360208201111561038c57600080fd5b803590602001918460018302840111640100000000831117156103ae57600080fd5b91908080601f016020809104026020016040519081016040528093929190818152602001838380828437600081840152601f19601f8201169050808301925050505050505091929192908035906020019064010000000081111561041157600080fd5b82018360208201111561042357600080fd5b8035906020019184600183028401116401000000008311171561044557600080fd5b91908080601f016020809104026020016040519081016040528093929190818152602001838380828437600081840152601f19601f820116905080830192505050505050509192919290803590602001909291908035906020019092919050505061079f565b604051808215151515815260200191505060405180910390f35b6104f1600480360360208110156104db57600080fd5b810190808035906020019092919050505061094c565b604051808060200180602001806020018060200187815260200186815260200185810385528b818151815260200191508051906020019080838360005b8381101561054957808201518184015260208101905061052e565b50505050905090810190601f1680156105765780820380516001836020036101000a031916815260200191505b5085810384528a818151815260200191508051906020019080838360005b838110156105af578082015181840152602081019050610594565b50505050905090810190601f1680156105dc5780820380516001836020036101000a031916815260200191505b50858103835289818151815260200191508051906020019080838360005b838110156106155780820151818401526020810190506105fa565b50505050905090810190601f1680156106425780820380516001836020036101000a031916815260200191505b50858103825288818151815260200191508051906020019080838360005b8381101561067b578082015181840152602081019050610660565b50505050905090810190601f1680156106a85780820380516001836020036101000a031916815260200191505b509a505050505050505050505060405180910390f35b6000600260009054906101000a900473ffffffffffffffffffffffffffffffffffffffff1673ffffffffffffffffffffffffffffffffffffffff163373ffffffffffffffffffffffffffffffffffffffff161461071a57600080fd5b826000808681526020019081526020016000206000019080519060200190610743929190610c60565b5081600080868152602001908152602001600020600101908051906020019061076d929190610c60565b50600190509392505050565b600260009054906101000a900473ffffffffffffffffffffffffffffffffffffffff1681565b6000600260009054906101000a900473ffffffffffffffffffffffffffffffffffffffff1673ffffffffffffffffffffffffffffffffffffffff163373ffffffffffffffffffffffffffffffffffffffff16146107fb57600080fd5b81600080905060008090505b600354811015610840578260008083815260200190815260200160002060070154141561083357600191505b8080600101915050610807565b6000821461084d57600080fd5b896000808d81526020019081526020016000206000019080519060200190610876929190610c60565b50886000808d815260200190815260200160002060020190805190602001906108a0929190610c60565b50876000808d815260200190815260200160002060040190805190602001906108ca929190610c60565b50866000808d815260200190815260200160002060050190805190602001906108f4929190610c60565b50856000808d815260200190815260200160002060060181905550846000808d815260200190815260200160002060070181905550600160036000828254019250508190555060019350505050979650505050505050565b6060806060806000806000808881526020019081526020016000206000018054600181600116156101000203166002900480601f0160208091040260200160405190810160405280929190818152602001828054600181600116156101000203166002900480156109fe5780601f106109d3576101008083540402835291602001916109fe565b820191906000526020600020905b8154815290600101906020018083116109e157829003601f168201915b505050505095506000808881526020019081526020016000206002018054600181600116156101000203166002900480601f016020809104026020016040519081016040528092919081815260200182805460018160011615610100020316600290048015610aae5780601f10610a8357610100808354040283529160200191610aae565b820191906000526020600020905b815481529060010190602001808311610a9157829003601f168201915b505050505094506000808881526020019081526020016000206004018054600181600116156101000203166002900480601f016020809104026020016040519081016040528092919081815260200182805460018160011615610100020316600290048015610b5e5780601f10610b3357610100808354040283529160200191610b5e565b820191906000526020600020905b815481529060010190602001808311610b4157829003601f168201915b505050505093506000808881526020019081526020016000206005018054600181600116156101000203166002900480601f016020809104026020016040519081016040528092919081815260200182805460018160011615610100020316600290048015610c0e5780601f10610be357610100808354040283529160200191610c0e565b820191906000526020600020905b815481529060010190602001808311610bf157829003601f168201915b5050505050925060008088815260200190815260200160002060060154915060008088815260200190815260200160002060070154905085858585858595509550955095509550955091939550919395565b828054600181600116156101000203166002900490600052602060002090601f016020900481019282601f10610ca157805160ff1916838001178555610ccf565b82800160010185558215610ccf579182015b82811115610cce578251825591602001919060010190610cb3565b5b509050610cdc9190610ce0565b5090565b610d0291905b80821115610cfe576000816000905550600101610ce6565b5090565b9056fea265627a7a723158207ee7dec779995b04bb6a0f40d1e0cbe1896fba4131abf66c256c72ca23042b4864736f6c63430005100032",
  "source": "pragma solidity ^0.5.0;\ncontract landTitle {\n    \n   struct Deeds{\n       string owner_name;\n       string citizenship;  \n       string land_type;\n       string province;\n       string district;\n       string municipality;\n       uint ward_no;\n       uint plot_no;\n   }\n    \n    mapping(uint=>Deeds) register_id;\n    mapping(uint=>string) new_owner;\n    \n    address public owner;\n    uint plot_count;\n\n    constructor() public {\n        owner = msg.sender;\n        plot_count=0;\n    }\n    \n    modifier verifyOwner(){require(msg.sender==owner);_;}\n    \n    modifier checkForRegistration(uint plot_no){\n        uint flag=0;\n        uint i;\n        for(i=0; i < plot_count; i++) {\n            if(register_id[i].plot_no==plot_no)\n            {\n                flag=1;\n            }\n            \n        }\n        require(flag==0);\n        _;\n    }\n    \n    function getDetails(uint _id) view public returns (string memory name, string memory land , string memory district , string memory municipality ,uint ward, uint  plot ) {\n        name=register_id[_id].owner_name;\n        land=register_id[_id].land_type;\n        district=register_id[_id].district;\n         municipality=register_id[_id].municipality;\n         ward=register_id[_id].ward_no;\n         plot=register_id[_id].plot_no;\n        return (name,land,district,municipality,ward,plot);\n    }\n \n    function registerLand(uint id,string memory owner_name, string memory land_type, string memory district, string memory municipality, uint ward_no, uint plot_no) \n    verifyOwner()\n    checkForRegistration(plot_no) \n    public \n    returns (bool){\n        register_id[id].owner_name=owner_name;\n        register_id[id].land_type=land_type;\n        register_id[id].district=district;\n        register_id[id].municipality=municipality;\n        register_id[id].ward_no=ward_no;\n        register_id[id].plot_no=plot_no;\n        plot_count+=1;\n        return true;\n    }\n\n    function changeOwnership(uint id, string memory owner_new, string memory citizen_ship ) public verifyOwner() returns(bool){\n        register_id[id].owner_name=owner_new;\n        register_id[id].citizenship=citizen_ship;\n        return true;\n    }       \n}\n",
  "sourcePath": "/home/shreya/Documents/finalProject/contracts/landTitle.sol",
  "compiler": {
    "name": "solc",
    "version": "0.5.16+commit.9c3226ce.Emscripten.clang"
  },
  "schemaVersion": "3.0.23",
  "updatedAt": "2020-04-06T06:58:36.729Z",
  "networkType": "ethereum",
  "devdoc": {
    "methods": {}
  },
  "userdoc": {
    "methods": {}
  }
}