{
  "contractName": "landTitle",
  "abi": [
    {
      "inputs": [],
      "payable": false,
      "stateMutability": "nonpayable",
      "type": "constructor"
    },
    {
      "constant": true,
      "inputs": [],
      "name": "owner",
      "outputs": [
        {
          "internalType": "address",
          "name": "",
          "type": "address"
        }
      ],
      "payable": false,
      "stateMutability": "view",
      "type": "function"
    },
    {
      "constant": true,
      "inputs": [
        {
          "internalType": "uint256",
          "name": "_id",
          "type": "uint256"
        }
      ],
      "name": "getDetails",
      "outputs": [
        {
          "internalType": "string",
          "name": "name",
          "type": "string"
        },
        {
          "internalType": "string",
          "name": "land",
          "type": "string"
        },
        {
          "internalType": "string",
          "name": "district",
          "type": "string"
        },
        {
          "internalType": "string",
          "name": "municipality",
          "type": "string"
        },
        {
          "internalType": "uint256",
          "name": "ward",
          "type": "uint256"
        },
        {
          "internalType": "uint256",
          "name": "plot",
          "type": "uint256"
        }
      ],
      "payable": false,
      "stateMutability": "view",
      "type": "function"
    },
    {
      "constant": false,
      "inputs": [
        {
          "internalType": "uint256",
          "name": "id",
          "type": "uint256"
        },
        {
          "internalType": "string",
          "name": "owner_name",
          "type": "string"
        },
        {
          "internalType": "string",
          "name": "land_type",
          "type": "string"
        },
        {
          "internalType": "string",
          "name": "district",
          "type": "string"
        },
        {
          "internalType": "string",
          "name": "municipality",
          "type": "string"
        },
        {
          "internalType": "uint256",
          "name": "ward_no",
          "type": "uint256"
        },
        {
          "internalType": "uint256",
          "name": "plot_no",
          "type": "uint256"
        }
      ],
      "name": "registerLand",
      "outputs": [
        {
          "internalType": "bool",
          "name": "",
          "type": "bool"
        }
      ],
      "payable": false,
      "stateMutability": "nonpayable",
      "type": "function"
    },
    {
      "constant": false,
      "inputs": [
        {
          "internalType": "uint256",
          "name": "id",
          "type": "uint256"
        },
        {
          "internalType": "string",
          "name": "owner_new",
          "type": "string"
        }
      ],
      "name": "changeOwnership",
      "outputs": [
        {
          "internalType": "bool",
          "name": "",
          "type": "bool"
        }
      ],
      "payable": false,
      "stateMutability": "nonpayable",
      "type": "function"
    }
  ],
  "bytecode": "0x608060405234801561001057600080fd5b5033600260006101000a81548173ffffffffffffffffffffffffffffffffffffffff021916908373ffffffffffffffffffffffffffffffffffffffff1602179055506000600381905550610c78806100696000396000f3fe608060405234801561001057600080fd5b506004361061004c5760003560e01c80638da5cb5b1461005157806391ddb7fc1461009b578063adc1507d14610178578063b93a89f71461042e575b600080fd5b610059610627565b604051808273ffffffffffffffffffffffffffffffffffffffff1673ffffffffffffffffffffffffffffffffffffffff16815260200191505060405180910390f35b61015e600480360360408110156100b157600080fd5b8101908080359060200190929190803590602001906401000000008111156100d857600080fd5b8201836020820111156100ea57600080fd5b8035906020019184600183028401116401000000008311171561010c57600080fd5b91908080601f016020809104026020016040519081016040528093929190818152602001838380828437600081840152601f19601f82011690508083019250505050505050919291929050505061064d565b604051808215151515815260200191505060405180910390f35b610414600480360360e081101561018e57600080fd5b8101908080359060200190929190803590602001906401000000008111156101b557600080fd5b8201836020820111156101c757600080fd5b803590602001918460018302840111640100000000831117156101e957600080fd5b91908080601f016020809104026020016040519081016040528093929190818152602001838380828437600081840152601f19601f8201169050808301925050505050505091929192908035906020019064010000000081111561024c57600080fd5b82018360208201111561025e57600080fd5b8035906020019184600183028401116401000000008311171561028057600080fd5b91908080601f016020809104026020016040519081016040528093929190818152602001838380828437600081840152601f19601f820116905080830192505050505050509192919290803590602001906401000000008111156102e357600080fd5b8201836020820111156102f557600080fd5b8035906020019184600183028401116401000000008311171561031757600080fd5b91908080601f016020809104026020016040519081016040528093929190818152602001838380828437600081840152601f19601f8201169050808301925050505050505091929192908035906020019064010000000081111561037a57600080fd5b82018360208201111561038c57600080fd5b803590602001918460018302840111640100000000831117156103ae57600080fd5b91908080601f016020809104026020016040519081016040528093929190818152602001838380828437600081840152601f19601f82011690508083019250505050505050919291929080359060200190929190803590602001909291905050506106dd565b604051808215151515815260200191505060405180910390f35b61045a6004803603602081101561044457600080fd5b810190808035906020019092919050505061088a565b604051808060200180602001806020018060200187815260200186815260200185810385528b818151815260200191508051906020019080838360005b838110156104b2578082015181840152602081019050610497565b50505050905090810190601f1680156104df5780820380516001836020036101000a031916815260200191505b5085810384528a818151815260200191508051906020019080838360005b838110156105185780820151818401526020810190506104fd565b50505050905090810190601f1680156105455780820380516001836020036101000a031916815260200191505b50858103835289818151815260200191508051906020019080838360005b8381101561057e578082015181840152602081019050610563565b50505050905090810190601f1680156105ab5780820380516001836020036101000a031916815260200191505b50858103825288818151815260200191508051906020019080838360005b838110156105e45780820151818401526020810190506105c9565b50505050905090810190601f1680156106115780820380516001836020036101000a031916815260200191505b509a505050505050505050505060405180910390f35b600260009054906101000a900473ffffffffffffffffffffffffffffffffffffffff1681565b6000600260009054906101000a900473ffffffffffffffffffffffffffffffffffffffff1673ffffffffffffffffffffffffffffffffffffffff163373ffffffffffffffffffffffffffffffffffffffff16146106a957600080fd5b8160008085815260200190815260200160002060000190805190602001906106d2929190610b9e565b506001905092915050565b6000600260009054906101000a900473ffffffffffffffffffffffffffffffffffffffff1673ffffffffffffffffffffffffffffffffffffffff163373ffffffffffffffffffffffffffffffffffffffff161461073957600080fd5b81600080905060008090505b60035481101561077e578260008083815260200190815260200160002060050154141561077157600191505b8080600101915050610745565b6000821461078b57600080fd5b896000808d815260200190815260200160002060000190805190602001906107b4929190610b9e565b50886000808d815260200190815260200160002060010190805190602001906107de929190610b9e565b50876000808d81526020019081526020016000206002019080519060200190610808929190610b9e565b50866000808d81526020019081526020016000206003019080519060200190610832929190610b9e565b50856000808d815260200190815260200160002060040181905550846000808d815260200190815260200160002060050181905550600160036000828254019250508190555060019350505050979650505050505050565b6060806060806000806000808881526020019081526020016000206000018054600181600116156101000203166002900480601f01602080910402602001604051908101604052809291908181526020018280546001816001161561010002031660029004801561093c5780601f106109115761010080835404028352916020019161093c565b820191906000526020600020905b81548152906001019060200180831161091f57829003601f168201915b505050505095506000808881526020019081526020016000206001018054600181600116156101000203166002900480601f0160208091040260200160405190810160405280929190818152602001828054600181600116156101000203166002900480156109ec5780601f106109c1576101008083540402835291602001916109ec565b820191906000526020600020905b8154815290600101906020018083116109cf57829003601f168201915b505050505094506000808881526020019081526020016000206002018054600181600116156101000203166002900480601f016020809104026020016040519081016040528092919081815260200182805460018160011615610100020316600290048015610a9c5780601f10610a7157610100808354040283529160200191610a9c565b820191906000526020600020905b815481529060010190602001808311610a7f57829003601f168201915b505050505093506000808881526020019081526020016000206003018054600181600116156101000203166002900480601f016020809104026020016040519081016040528092919081815260200182805460018160011615610100020316600290048015610b4c5780601f10610b2157610100808354040283529160200191610b4c565b820191906000526020600020905b815481529060010190602001808311610b2f57829003601f168201915b5050505050925060008088815260200190815260200160002060040154915060008088815260200190815260200160002060050154905085858585858595509550955095509550955091939550919395565b828054600181600116156101000203166002900490600052602060002090601f016020900481019282601f10610bdf57805160ff1916838001178555610c0d565b82800160010185558215610c0d579182015b82811115610c0c578251825591602001919060010190610bf1565b5b509050610c1a9190610c1e565b5090565b610c4091905b80821115610c3c576000816000905550600101610c24565b5090565b9056fea265627a7a72315820437ff1e3f9cb1308504b3d1f640de068dea44b60925e20164d88dc5d1f11a20264736f6c63430005100032",
  "source": "pragma solidity ^0.5.0;\ncontract landTitle {\n    \n   struct Deeds{\n       string owner_name;\n       string land_type;\n       string district;\n       string municipality;\n       uint ward_no;\n       uint plot_no;\n   }\n   \n    mapping(uint=>Deeds) register_id;\n    mapping(uint=>string) new_owner;\n    \n    address public owner;\n    uint plot_count;\n\n    constructor() public {\n        owner = msg.sender;\n        plot_count=0;\n    }\n    \n    modifier verifyOwner(){require(msg.sender==owner);_;}\n    \n    modifier checkForRegistration(uint plot_no){\n        uint flag=0;\n        uint i;\n        for(i=0; i < plot_count; i++) {\n            if(register_id[i].plot_no==plot_no)\n            {\n                flag=1;\n            }\n            \n        }\n        require(flag==0);\n        _;\n    }\n    \n    function getDetails(uint _id) view public returns (string memory name, string memory land , string memory district , string memory municipality ,uint ward, uint  plot ) {\n         name=register_id[_id].owner_name;\n        land=register_id[_id].land_type;\n        district=register_id[_id].district;\n         municipality=register_id[_id].municipality;\n         ward=register_id[_id].ward_no;\n         plot=register_id[_id].plot_no;\n        return (name,land,district,municipality,ward,plot);\n    }\n \n    function registerLand(uint id,string memory owner_name, string memory land_type, string memory district, string memory municipality, uint ward_no, uint plot_no) \n    verifyOwner()\n    checkForRegistration(plot_no) \n    public \n    returns (bool){\n        register_id[id].owner_name=owner_name;\n        register_id[id].land_type=land_type;\n        register_id[id].district=district;\n        register_id[id].municipality=municipality;\n        register_id[id].ward_no=ward_no;\n        register_id[id].plot_no=plot_no;\n        plot_count+=1;\n        return true;\n    }\n\n    function changeOwnership(uint id, string memory owner_new) public verifyOwner() returns(bool){\n        register_id[id].owner_name=owner_new;\n        return true;\n    }       \n}\n",
  "sourcePath": "/home/shreya/Documents/finalProject/contracts/landTitle.sol",
  "compiler": {
    "name": "solc",
    "version": "0.5.16+commit.9c3226ce.Emscripten.clang"
  },
  "schemaVersion": "3.0.23",
  "updatedAt": "2020-04-02T14:27:59.937Z",
  "networkType": "ethereum",
  "devdoc": {
    "methods": {}
  },
  "userdoc": {
    "methods": {}
  }
}