{
  "contractName": "users",
  "abi": [
    {
      "inputs": [],
      "payable": false,
      "stateMutability": "nonpayable",
      "type": "constructor"
    },
    {
      "constant": true,
      "inputs": [
        {
          "internalType": "string",
          "name": "username",
          "type": "string"
        },
        {
          "internalType": "string",
          "name": "password",
          "type": "string"
        }
      ],
      "name": "login",
      "outputs": [
        {
          "internalType": "bool",
          "name": "",
          "type": "bool"
        }
      ],
      "payable": false,
      "stateMutability": "view",
      "type": "function"
    },
    {
      "constant": false,
      "inputs": [
        {
          "internalType": "string",
          "name": "username",
          "type": "string"
        },
        {
          "internalType": "string",
          "name": "email",
          "type": "string"
        },
        {
          "internalType": "string",
          "name": "new_password",
          "type": "string"
        }
      ],
      "name": "changePassword",
      "outputs": [
        {
          "internalType": "bool",
          "name": "",
          "type": "bool"
        }
      ],
      "payable": false,
      "stateMutability": "nonpayable",
      "type": "function"
    }
  ],
  "bytecode": "0x608060405234801561001057600080fd5b5033600160006101000a81548173ffffffffffffffffffffffffffffffffffffffff021916908373ffffffffffffffffffffffffffffffffffffffff1602179055506040518060400160405280600881526020017f6469737472696374000000000000000000000000000000000000000000000000815250600080600160009054906101000a900473ffffffffffffffffffffffffffffffffffffffff1673ffffffffffffffffffffffffffffffffffffffff1673ffffffffffffffffffffffffffffffffffffffff16815260200190815260200160002060000190805190602001906100fe92919061025e565b506040518060400160405280600d81526020017f64697374726963744f776e657200000000000000000000000000000000000000815250600080600160009054906101000a900473ffffffffffffffffffffffffffffffffffffffff1673ffffffffffffffffffffffffffffffffffffffff1673ffffffffffffffffffffffffffffffffffffffff16815260200190815260200160002060010190805190602001906101ab92919061025e565b506040518060400160405280600f81526020017f656d61696c40656d61696c2e636f6d0000000000000000000000000000000000815250600080600160009054906101000a900473ffffffffffffffffffffffffffffffffffffffff1673ffffffffffffffffffffffffffffffffffffffff1673ffffffffffffffffffffffffffffffffffffffff168152602001908152602001600020600201908051906020019061025892919061025e565b50610303565b828054600181600116156101000203166002900490600052602060002090601f016020900481019282601f1061029f57805160ff19168380011785556102cd565b828001600101855582156102cd579182015b828111156102cc5782518255916020019190600101906102b1565b5b5090506102da91906102de565b5090565b61030091905b808211156102fc5760008160009055506001016102e4565b5090565b90565b6109d6806103126000396000f3fe608060405234801561001057600080fd5b50600436106100365760003560e01c806358467dbc1461003b578063f05f31fc146101a5575b600080fd5b61018b6004803603604081101561005157600080fd5b810190808035906020019064010000000081111561006e57600080fd5b82018360208201111561008057600080fd5b803590602001918460018302840111640100000000831117156100a257600080fd5b91908080601f016020809104026020016040519081016040528093929190818152602001838380828437600081840152601f19601f8201169050808301925050505050505091929192908035906020019064010000000081111561010557600080fd5b82018360208201111561011757600080fd5b8035906020019184600183028401116401000000008311171561013957600080fd5b91908080601f016020809104026020016040519081016040528093929190818152602001838380828437600081840152601f19601f8201169050808301925050505050505091929192905050506103a6565b604051808215151515815260200191505060405180910390f35b61038c600480360360608110156101bb57600080fd5b81019080803590602001906401000000008111156101d857600080fd5b8201836020820111156101ea57600080fd5b8035906020019184600183028401116401000000008311171561020c57600080fd5b91908080601f016020809104026020016040519081016040528093929190818152602001838380828437600081840152601f19601f8201169050808301925050505050505091929192908035906020019064010000000081111561026f57600080fd5b82018360208201111561028157600080fd5b803590602001918460018302840111640100000000831117156102a357600080fd5b91908080601f016020809104026020016040519081016040528093929190818152602001838380828437600081840152601f19601f8201169050808301925050505050505091929192908035906020019064010000000081111561030657600080fd5b82018360208201111561031857600080fd5b8035906020019184600183028401116401000000008311171561033a57600080fd5b91908080601f016020809104026020016040519081016040528093929190818152602001838380828437600081840152601f19601f820116905080830192505050505050509192919290505050610629565b604051808215151515815260200191505060405180910390f35b6000826040516020018082805190602001908083835b602083106103df57805182526020820191506020810190506020830392506103bc565b6001836020036101000a038019825116818451168082178552505050505050905001915050604051602081830303815290604052805190602001206000803373ffffffffffffffffffffffffffffffffffffffff1673ffffffffffffffffffffffffffffffffffffffff16815260200190815260200160002060000160405160200180828054600181600116156101000203166002900480156104b95780601f106104975761010080835404028352918201916104b9565b820191906000526020600020905b8154815290600101906020018083116104a5575b505091505060405160208183030381529060405280519060200120141561061e57816040516020018082805190602001908083835b6020831061051157805182526020820191506020810190506020830392506104ee565b6001836020036101000a038019825116818451168082178552505050505050905001915050604051602081830303815290604052805190602001206000803373ffffffffffffffffffffffffffffffffffffffff1673ffffffffffffffffffffffffffffffffffffffff16815260200190815260200160002060010160405160200180828054600181600116156101000203166002900480156105eb5780601f106105c95761010080835404028352918201916105eb565b820191906000526020600020905b8154815290600101906020018083116105d7575b50509150506040516020818303038152906040528051906020012014156106155760019050610623565b60009050610623565b600090505b92915050565b60008383816040516020018082805190602001908083835b602083106106645780518252602082019150602081019050602083039250610641565b6001836020036101000a038019825116818451168082178552505050505050905001915050604051602081830303815290604052805190602001206000803373ffffffffffffffffffffffffffffffffffffffff1673ffffffffffffffffffffffffffffffffffffffff168152602001908152602001600020600001604051602001808280546001816001161561010002031660029004801561073e5780601f1061071c57610100808354040283529182019161073e565b820191906000526020600020905b81548152906001019060200180831161072a575b5050915050604051602081830303815290604052805190602001201461076357600080fd5b806040516020018082805190602001908083835b6020831061079a5780518252602082019150602081019050602083039250610777565b6001836020036101000a038019825116818451168082178552505050505050905001915050604051602081830303815290604052805190602001206000803373ffffffffffffffffffffffffffffffffffffffff1673ffffffffffffffffffffffffffffffffffffffff16815260200190815260200160002060020160405160200180828054600181600116156101000203166002900480156108745780601f10610852576101008083540402835291820191610874565b820191906000526020600020905b815481529060010190602001808311610860575b5050915050604051602081830303815290604052805190602001201461089957600080fd5b836000803373ffffffffffffffffffffffffffffffffffffffff1673ffffffffffffffffffffffffffffffffffffffff16815260200190815260200160002060010190805190602001906108ee9291906108fc565b506001925050509392505050565b828054600181600116156101000203166002900490600052602060002090601f016020900481019282601f1061093d57805160ff191683800117855561096b565b8280016001018555821561096b579182015b8281111561096a57825182559160200191906001019061094f565b5b509050610978919061097c565b5090565b61099e91905b8082111561099a576000816000905550600101610982565b5090565b9056fea265627a7a7231582021fce80e07f431e3bd32970aff6a831690aca87c6bf8922e05cc168cb957c80e64736f6c63430005100032",
  "source": "pragma solidity ^0.5.0;\n\ncontract users{\n    \n    struct Users{\n        string username;\n        string password;\n        string email;\n    }\n\n    mapping(address=>Users) user_id;\n    address owner;\n\n    constructor() public {\n        owner = msg.sender;\n        user_id[owner].username='district';\n        user_id[owner].password='districtOwner';\n        user_id[owner].email='email@email.com';\n\n        // user_id[''].username='district';\n        // user_id[''].password='districtOwner';\n\n        // user_id[''].username='district';\n        // user_id[''].password='districtOwner';\n    }\n\n    \n    modifier verifyUser(string memory username, string memory email){\n        require(keccak256(abi.encodePacked((user_id[msg.sender].username)))==keccak256(abi.encodePacked((username))));\n        require(keccak256(abi.encodePacked((user_id[msg.sender].email)))==keccak256(abi.encodePacked((email))));\n        _;   \n    }\n    \n\n    function login(string memory username, string memory password) \n    view\n    public\n     returns (bool){\n        if(keccak256(abi.encodePacked((user_id[msg.sender].username)))==keccak256(abi.encodePacked((username)))){\n        if(keccak256(abi.encodePacked((user_id[msg.sender].password)))==keccak256(abi.encodePacked((password)))){\n            return true;\n        }\n        else{\n            return false;\n        }\n        }\n        else{\n            return false;\n        }\n    }   \n\n    function changePassword(string memory username, string memory email,string memory new_password) \n    public\n    verifyUser(username,email)\n    returns (bool){\n            user_id[msg.sender].password=new_password;\n            return true;\n    }\n}",
  "sourcePath": "/home/shreya/Documents/finalProject/contracts/users.sol",
  "compiler": {
    "name": "solc",
    "version": "0.5.16+commit.9c3226ce.Emscripten.clang"
  },
  "schemaVersion": "3.0.23",
  "updatedAt": "2020-04-07T08:00:33.175Z",
  "devdoc": {
    "methods": {}
  },
  "userdoc": {
    "methods": {}
  }
}