{
  "contractName": "validate",
  "abi": [
    {
      "inputs": [],
      "payable": false,
      "stateMutability": "nonpayable",
      "type": "constructor"
    },
    {
      "anonymous": false,
      "inputs": [
        {
          "indexed": true,
          "internalType": "bytes32",
          "name": "record",
          "type": "bytes32"
        },
        {
          "indexed": true,
          "internalType": "address",
          "name": "certifier",
          "type": "address"
        },
        {
          "indexed": false,
          "internalType": "uint256",
          "name": "timestamp",
          "type": "uint256"
        }
      ],
      "name": "LogRecorded",
      "type": "event"
    },
    {
      "constant": true,
      "inputs": [
        {
          "internalType": "bytes32",
          "name": "",
          "type": "bytes32"
        }
      ],
      "name": "belongsTo",
      "outputs": [
        {
          "internalType": "string",
          "name": "id",
          "type": "string"
        },
        {
          "internalType": "string",
          "name": "docType",
          "type": "string"
        },
        {
          "internalType": "string",
          "name": "docOwner",
          "type": "string"
        }
      ],
      "payable": false,
      "stateMutability": "view",
      "type": "function"
    },
    {
      "constant": true,
      "inputs": [],
      "name": "owner",
      "outputs": [
        {
          "internalType": "address",
          "name": "",
          "type": "address"
        }
      ],
      "payable": false,
      "stateMutability": "view",
      "type": "function"
    },
    {
      "constant": true,
      "inputs": [
        {
          "internalType": "bytes32",
          "name": "",
          "type": "bytes32"
        }
      ],
      "name": "records",
      "outputs": [
        {
          "internalType": "address",
          "name": "",
          "type": "address"
        }
      ],
      "payable": false,
      "stateMutability": "view",
      "type": "function"
    },
    {
      "constant": true,
      "inputs": [
        {
          "internalType": "bytes32",
          "name": "",
          "type": "bytes32"
        }
      ],
      "name": "timestamps",
      "outputs": [
        {
          "internalType": "uint256",
          "name": "",
          "type": "uint256"
        }
      ],
      "payable": false,
      "stateMutability": "view",
      "type": "function"
    },
    {
      "constant": false,
      "inputs": [
        {
          "internalType": "bytes32",
          "name": "_record",
          "type": "bytes32"
        },
        {
          "internalType": "string",
          "name": "_doc",
          "type": "string"
        },
        {
          "internalType": "string",
          "name": "_docOwner",
          "type": "string"
        },
        {
          "internalType": "string",
          "name": "_id",
          "type": "string"
        }
      ],
      "name": "recordFile",
      "outputs": [],
      "payable": false,
      "stateMutability": "nonpayable",
      "type": "function"
    },
    {
      "constant": true,
      "inputs": [
        {
          "internalType": "bytes32",
          "name": "_record",
          "type": "bytes32"
        }
      ],
      "name": "exists",
      "outputs": [
        {
          "internalType": "bool",
          "name": "",
          "type": "bool"
        }
      ],
      "payable": false,
      "stateMutability": "view",
      "type": "function"
    },
    {
      "constant": true,
      "inputs": [
        {
          "internalType": "bytes32",
          "name": "_record",
          "type": "bytes32"
        }
      ],
      "name": "getRecorder",
      "outputs": [
        {
          "internalType": "address",
          "name": "",
          "type": "address"
        }
      ],
      "payable": false,
      "stateMutability": "view",
      "type": "function"
    },
    {
      "constant": true,
      "inputs": [
        {
          "internalType": "bytes32",
          "name": "_record",
          "type": "bytes32"
        }
      ],
      "name": "getTimestamp",
      "outputs": [
        {
          "internalType": "uint256",
          "name": "",
          "type": "uint256"
        }
      ],
      "payable": false,
      "stateMutability": "view",
      "type": "function"
    },
    {
      "constant": true,
      "inputs": [
        {
          "internalType": "bytes32",
          "name": "_record",
          "type": "bytes32"
        }
      ],
      "name": "didRecord",
      "outputs": [
        {
          "internalType": "bool",
          "name": "",
          "type": "bool"
        }
      ],
      "payable": false,
      "stateMutability": "view",
      "type": "function"
    },
    {
      "constant": true,
      "inputs": [
        {
          "internalType": "bytes32",
          "name": "_record",
          "type": "bytes32"
        },
        {
          "internalType": "address",
          "name": "_certifier",
          "type": "address"
        }
      ],
      "name": "isRecorder",
      "outputs": [
        {
          "internalType": "bool",
          "name": "",
          "type": "bool"
        }
      ],
      "payable": false,
      "stateMutability": "view",
      "type": "function"
    }
  ],
  "bytecode": "0x608060405234801561001057600080fd5b50336000806101000a81548173ffffffffffffffffffffffffffffffffffffffff021916908373ffffffffffffffffffffffffffffffffffffffff160217905550610f1f806100606000396000f3fe608060405234801561001057600080fd5b506004361061009e5760003560e01c80638da5cb5b116100665780638da5cb5b14610382578063a4e129a9146103cc578063ad163a7f1461043a578063b58729581461062d578063d45c44351461066f5761009e565b806301e64725146100a357806338a699a4146101115780633b13123d1461015757806342a3d35f1461019d578063437c2e841461031c575b600080fd5b6100cf600480360360208110156100b957600080fd5b81019080803590602001909291905050506106b1565b604051808273ffffffffffffffffffffffffffffffffffffffff1673ffffffffffffffffffffffffffffffffffffffff16815260200191505060405180910390f35b61013d6004803603602081101561012757600080fd5b81019080803590602001909291905050506106e4565b604051808215151515815260200191505060405180910390f35b6101836004803603602081101561016d57600080fd5b810190808035906020019092919050505061077c565b604051808215151515815260200191505060405180910390f35b6101c9600480360360208110156101b357600080fd5b810190808035906020019092919050505061080d565b60405180806020018060200180602001848103845287818151815260200191508051906020019080838360005b838110156102115780820151818401526020810190506101f6565b50505050905090810190601f16801561023e5780820380516001836020036101000a031916815260200191505b50848103835286818151815260200191508051906020019080838360005b8381101561027757808201518184015260208101905061025c565b50505050905090810190601f1680156102a45780820380516001836020036101000a031916815260200191505b50848103825285818151815260200191508051906020019080838360005b838110156102dd5780820151818401526020810190506102c2565b50505050905090810190601f16801561030a5780820380516001836020036101000a031916815260200191505b50965050505050505060405180910390f35b6103686004803603604081101561033257600080fd5b8101908080359060200190929190803573ffffffffffffffffffffffffffffffffffffffff1690602001909291905050506109ff565b604051808215151515815260200191505060405180910390f35b61038a610a91565b604051808273ffffffffffffffffffffffffffffffffffffffff1673ffffffffffffffffffffffffffffffffffffffff16815260200191505060405180910390f35b6103f8600480360360208110156103e257600080fd5b8101908080359060200190929190505050610ab6565b604051808273ffffffffffffffffffffffffffffffffffffffff1673ffffffffffffffffffffffffffffffffffffffff16815260200191505060405180910390f35b61062b6004803603608081101561045057600080fd5b81019080803590602001909291908035906020019064010000000081111561047757600080fd5b82018360208201111561048957600080fd5b803590602001918460018302840111640100000000831117156104ab57600080fd5b91908080601f016020809104026020016040519081016040528093929190818152602001838380828437600081840152601f19601f8201169050808301925050505050505091929192908035906020019064010000000081111561050e57600080fd5b82018360208201111561052057600080fd5b8035906020019184600183028401116401000000008311171561054257600080fd5b91908080601f016020809104026020016040519081016040528093929190818152602001838380828437600081840152601f19601f820116905080830192505050505050509192919290803590602001906401000000008111156105a557600080fd5b8201836020820111156105b757600080fd5b803590602001918460018302840111640100000000831117156105d957600080fd5b91908080601f016020809104026020016040519081016040528093929190818152602001838380828437600081840152601f19601f820116905080830192505050505050509192919290505050610b19565b005b6106596004803603602081101561064357600080fd5b8101908080359060200190929190505050610dc3565b6040518082815260200191505060405180910390f35b61069b6004803603602081101561068557600080fd5b8101908080359060200190929190505050610ddb565b6040518082815260200191505060405180910390f35b60016020528060005260406000206000915054906101000a900473ffffffffffffffffffffffffffffffffffffffff1681565b6000808260405160200180828152602001915050604051602081830303815290604052805190602001209050600073ffffffffffffffffffffffffffffffffffffffff166001600083815260200190815260200160002060009054906101000a900473ffffffffffffffffffffffffffffffffffffffff1673ffffffffffffffffffffffffffffffffffffffff161415915050919050565b60003373ffffffffffffffffffffffffffffffffffffffff1660016000846040516020018082815260200191505060405160208183030381529060405280519060200120815260200190815260200160002060009054906101000a900473ffffffffffffffffffffffffffffffffffffffff1673ffffffffffffffffffffffffffffffffffffffff16149050919050565b6003602052806000526040600020600091509050806000018054600181600116156101000203166002900480601f0160208091040260200160405190810160405280929190818152602001828054600181600116156101000203166002900480156108b95780601f1061088e576101008083540402835291602001916108b9565b820191906000526020600020905b81548152906001019060200180831161089c57829003601f168201915b505050505090806001018054600181600116156101000203166002900480601f0160208091040260200160405190810160405280929190818152602001828054600181600116156101000203166002900480156109575780601f1061092c57610100808354040283529160200191610957565b820191906000526020600020905b81548152906001019060200180831161093a57829003601f168201915b505050505090806002018054600181600116156101000203166002900480601f0160208091040260200160405190810160405280929190818152602001828054600181600116156101000203166002900480156109f55780601f106109ca576101008083540402835291602001916109f5565b820191906000526020600020905b8154815290600101906020018083116109d857829003601f168201915b5050505050905083565b60008173ffffffffffffffffffffffffffffffffffffffff1660016000856040516020018082815260200191505060405160208183030381529060405280519060200120815260200190815260200160002060009054906101000a900473ffffffffffffffffffffffffffffffffffffffff1673ffffffffffffffffffffffffffffffffffffffff1614905092915050565b6000809054906101000a900473ffffffffffffffffffffffffffffffffffffffff1681565b600060016000836040516020018082815260200191505060405160208183030381529060405280519060200120815260200190815260200160002060009054906101000a900473ffffffffffffffffffffffffffffffffffffffff169050919050565b600084604051602001808281526020019150506040516020818303038152906040528051906020012090506040518060000190506040518091039020811415610bca576040517f08c379a00000000000000000000000000000000000000000000000000000000081526004018080602001828103825260108152602001807f696e70757420697320696e76616c69640000000000000000000000000000000081525060200191505060405180910390fd5b600073ffffffffffffffffffffffffffffffffffffffff166001600083815260200190815260200160002060009054906101000a900473ffffffffffffffffffffffffffffffffffffffff1673ffffffffffffffffffffffffffffffffffffffff1614610c82576040517f08c379a0000000000000000000000000000000000000000000000000000000008152600401808060200182810382526027815260200180610ec46027913960400191505060405180910390fd5b336001600083815260200190815260200160002060006101000a81548173ffffffffffffffffffffffffffffffffffffffff021916908373ffffffffffffffffffffffffffffffffffffffff16021790555042600260008381526020019081526020016000208190555083600360008381526020019081526020016000206001019080519060200190610d16929190610e1e565b5082600360008381526020019081526020016000206002019080519060200190610d41929190610e1e565b5081600360008381526020019081526020016000206000019080519060200190610d6c929190610e1e565b503373ffffffffffffffffffffffffffffffffffffffff16817f16b7454bca49c7936d08d1fa77b294a62139458ed3edd78857a8e44b18b87f96426040518082815260200191505060405180910390a35050505050565b60026020528060005260406000206000915090505481565b6000600260008360405160200180828152602001915050604051602081830303815290604052805190602001208152602001908152602001600020549050919050565b828054600181600116156101000203166002900490600052602060002090601f016020900481019282601f10610e5f57805160ff1916838001178555610e8d565b82800160010185558215610e8d579182015b82811115610e8c578251825591602001919060010190610e71565b5b509050610e9a9190610e9e565b5090565b610ec091905b80821115610ebc576000816000905550600101610ea4565b5090565b9056fe74686973207265636f7264206861766520616c7265616479206265656e20636572746966696564a265627a7a72315820beabca735bede89a7cd5f9f77149453b36da110642cd11fe6dbb221f6051057264736f6c63430005100032",
  "source": "pragma solidity ^0.5.16;\ncontract validate{\n  address public owner;\n\n  constructor() public {\n    owner = msg.sender;\n  }\n\n  struct Details{\n    string id;\n    string docType;\n    string docOwner;\n  }\n//mapping documents hash to the address\n  mapping (bytes32 => address) public records;\n\n//mapping documents hash to timestamp of block creation\n  mapping (bytes32 => uint256) public timestamps;\n  mapping (bytes32 => Details) public belongsTo;\n\n  event LogRecorded(bytes32 indexed record, address indexed certifier, uint256 timestamp);\n\n/// @notice Stores the given hash in Blockchain\n/// @dev stores address of function caller and blocks timestamp is stored via mapping and emits LogCertified event \n/// @param _record Hash of the given document\n  function recordFile(bytes32 _record,string memory _doc,string memory _docOwner, string memory _id) public {\n    bytes32 hash = keccak256(abi.encodePacked(_record));\n    require(hash != keccak256(\"\"),\"input is invalid\");\n    require(records[hash] == address(0),\"this record have already been certified\");\n    records[hash] = msg.sender;\n    timestamps[hash] = block.timestamp;\n    belongsTo[hash].docType = _doc;\n    belongsTo[hash].docOwner = _docOwner;\n    belongsTo[hash].id = _id;\n\n    emit LogRecorded(hash, msg.sender, block.timestamp);\n  }\n\n/// @notice checks if hash already exists on smart contract\n/// @dev hash the given record and checks if it maps to any address\n/// @param _record Hash of the given document\n/// @return bool value explaining whether hash already exists or not\n  function exists(bytes32 _record) view public returns (bool) {\n    bytes32 hash = keccak256(abi.encodePacked(_record));\n    return records[hash] != address(0);\n  }\n\n/// @notice get the certifier of the Document\n/// @dev checks the address mapped with given parameter\n/// @param _record Hash of the given document\n/// @return address of the certifier\n  function getRecorder(bytes32 _record) view public returns (address) {\n    return records[keccak256(abi.encodePacked(_record))];\n  }\n\n/// @notice get the timestamp when document is certified\n/// @dev checks the timestamp mapped with given parameter\n/// @param _record Hash of the given document\n/// @return timestamp of the document certification\n  function getTimestamp(bytes32 _record) view public returns (uint256) {\n    return timestamps[keccak256(abi.encodePacked(_record))];\n  }\n\n\n/// @notice check whether the function caller certify the given record\n/// @dev checks whether the hash mapped with address equals msg.sender or not\n/// @param _record Hash of the given document\n/// @return  bool value explaining whether the given record certified by function caller or not\n  function didRecord(bytes32 _record) view public returns (bool) {\n    return records[keccak256(abi.encodePacked(_record))] == msg.sender;\n  }\n\n/// @notice check whether the given address is certifier of given record\n/// @dev checks whether the hash mapped with given record equals given address\n/// @param _record Hash of the given document\n/// @param _certifier Address of document certifier\n/// @return  bool value explaining whether the given record certified by given address or not\n  function isRecorder(bytes32 _record, address _certifier) view public returns (bool) {\n    return records[keccak256(abi.encodePacked(_record))] == _certifier;\n  }\n\n}\n",
  "sourcePath": "/home/shreya/Documents/finalProject/contracts/validate.sol",
  "compiler": {
    "name": "solc",
    "version": "0.5.16+commit.9c3226ce.Emscripten.clang"
  },
  "schemaVersion": "3.0.23",
  "updatedAt": "2020-04-07T15:48:13.126Z",
  "devdoc": {
    "methods": {
      "didRecord(bytes32)": {
        "details": "checks whether the hash mapped with address equals msg.sender or not",
        "params": {
          "_record": "Hash of the given document"
        },
        "return": "bool value explaining whether the given record certified by function caller or not"
      },
      "exists(bytes32)": {
        "details": "hash the given record and checks if it maps to any address",
        "params": {
          "_record": "Hash of the given document"
        },
        "return": "bool value explaining whether hash already exists or not"
      },
      "getRecorder(bytes32)": {
        "details": "checks the address mapped with given parameter",
        "params": {
          "_record": "Hash of the given document"
        },
        "return": "address of the certifier"
      },
      "getTimestamp(bytes32)": {
        "details": "checks the timestamp mapped with given parameter",
        "params": {
          "_record": "Hash of the given document"
        },
        "return": "timestamp of the document certification"
      },
      "isRecorder(bytes32,address)": {
        "details": "checks whether the hash mapped with given record equals given address",
        "params": {
          "_certifier": "Address of document certifier",
          "_record": "Hash of the given document"
        },
        "return": "bool value explaining whether the given record certified by given address or not"
      },
      "recordFile(bytes32,string,string,string)": {
        "details": "stores address of function caller and blocks timestamp is stored via mapping and emits LogCertified event ",
        "params": {
          "_record": "Hash of the given document"
        }
      }
    }
  },
  "userdoc": {
    "methods": {
      "didRecord(bytes32)": {
        "notice": "check whether the function caller certify the given record"
      },
      "exists(bytes32)": {
        "notice": "checks if hash already exists on smart contract"
      },
      "getRecorder(bytes32)": {
        "notice": "get the certifier of the Document"
      },
      "getTimestamp(bytes32)": {
        "notice": "get the timestamp when document is certified"
      },
      "isRecorder(bytes32,address)": {
        "notice": "check whether the given address is certifier of given record"
      },
      "recordFile(bytes32,string,string,string)": {
        "notice": "Stores the given hash in Blockchain"
      }
    }
  }
}